:020000040800F2
:1000000000280020BD1700084D17000853170008EE
:10001000591700085F170008651700080000000066
:100020000000000000000000000000006B17000846
:100030007717000800000000831700088F170008DA
:10004000051800080518000805180008051800081C
:10005000051800080518000805180008051800080C
:1000600005180008051800080518000805180008FC
:1000700005180008051800080518000805180008EC
:1000800005180008051800080518000805180008DC
:1000900005180008051800080518000805180008CC
:1000A00005180008051800080518000805180008BC
:1000B0009D1700080518000800000000051800083A
:1000C00005180008000000000000000005180008E6
:1000D00000000000051800080518000800000000D6
:1000E00005180008051800080518000800000000A1
:1000F0000000000000000000000000000000000000
:0C01000000000000000000005FF808F1A3
:10010C0010B5054C237833B9044B13B10448AFF345
:10011C0000800123237010BD64000020000000004B
:10012C00602E000808B5034B1BB103490348AFF31D
:10013C00008008BD0000000068000020602E000850
:10014C0080B400AF064B1B68012B04D1044B00227A
:10015C001A60012300E000231846BD4680BC70479E
:10016C008000002080B400AF064B1B68012B04D12B
:10017C00044B00221A60012300E000231846BD4600
:10018C0080BC70478400002080B400AF064B1B6815
:10019C00012B04D1044B00221A60012300E0002340
:1001AC001846BD4680BC70478800002080B400AF64
:1001BC00034B01221A6000BFBD4680BC704700BFD4
:1001CC008000002080B400AF034B01221A6000BFF6
:1001DC00BD4680BC704700BF8400002080B400AFD7
:1001EC00034B01221A6000BFBD4680BC704700BFA4
:1001FC008800002080B500AF1E4B1B681E4A1360A0
:10020C001E4B1B681B4A136002211D4801F0E2FDC6
:10021C0003461A46194B1A60164B1A68164B1B6884
:10022C009A4225D1134B1A68144B1B689A421FD162
:10023C00124B1A68134B1B689A420DD00F4B1B685C
:10024C00104A13600D4B1B68002B11D10E4BC822AA
:10025C001A60FFF7ABFF0BE00B4B1B68013B0A4A24
:10026C001360094B1B68002B02D1064B01221A604C
:10027C0000BF80BD0400002000000020080000200A
:10028C00000801400C0000203000002080B500AFB9
:10029C001E4B1B681E4A13601E4B1B681B4A1360C7
:1002AC0004211D4801F096FD03461A46194B1A60AD
:1002BC00164B1A68164B1B689A4225D1134B1A68B9
:1002CC00144B1B689A421FD1124B1A68134B1B68B4
:1002DC009A420DD00F4B1B68104A13600D4B1B68D4
:1002EC00002B11D10E4B32221A60FFF76BFF0BE083
:1002FC000B4B1B68013B0A4A1360094B1B68002B14
:10030C0002D1064B01221A6000BF80BD14000020F0
:10031C001000002018000020000801401C000020E4
:10032C003400002080B500AF1E4B1B681E4A1360C2
:10033C001E4B1B681B4A136008211D4801F04AFD27
:10034C0003461A46194B1A60164B1A68164B1B6853
:10035C009A4225D1134B1A68144B1B689A421FD131
:10036C00124B1A68134B1B689A420DD00F4B1B682B
:10037C00104A13600D4B1B68002B11D10E4BC82279
:10038C001A60FFF72BFF0BE00B4B1B68013B0A4A73
:10039C001360094B1B68002B02D1064B01221A601B
:1003AC0000BF80BD24000020200000202800002079
:1003BC00000801402C0000203800002080B500AF60
:1003CC00BC4B1B68012B05D100F0D4FD4FF47A70A7
:1003DC0001F0AAF8B84B1B68012B07D1B74B1B686F
:1003EC00184600F01BFD7D2001F072F8B44B1B6821
:1003FC00013B042B00F2528101A252F823F000BF02
:10040C00210400087D040008090500089505000872
:10041C001F06000801222021AA4801F0F2FC01224B
:10042C004021A84801F0EDFC01228021A54801F0F3
:10043C00E8FC01224FF48071A24801F0E2FC012299
:10044C004FF400719F4801F0DCFC01224FF48061F5
:10045C009C4801F0D6FC9A4B02221A609A4B1B68FE
:10046C004FF47A7202FB03F3184601F005F81EE113
:10047C0000222021934801F0C4FC01224021914824
:10048C0001F0BFFC012280218E4801F0BAFC012250
:10049C004FF480718B4801F0B4FC01224FF40071D1
:1004AC00884801F0AEFC00224FF48061854801F0D1
:1004BC00A8FC864B1B68012B0BD1814B03221A60C5
:1004CC00834B1B684FF47A7202FB03F3184600F05F
:1004DC00D3FFFFF735FE0346012B40F0E180784B4C
:1004EC000A221A6001222021764801F08AFC01229E
:1004FC004FF48071734801F084FCD1E0002220217C
:10050C00704801F07EFC012240216E4801F079FC1C
:10051C00012280216B4801F074FC01224FF48071A0
:10052C00684801F06EFC00224FF40071654801F040
:10053C0068FC01224FF48061624801F062FC634B5D
:10054C001B68012B0BD15E4B04221A605E4B1B689F
:10055C004FF47A7202FB03F3184600F08DFFFFF79D
:10056C00EFFD0346012B40F09D80554B0A221A608B
:10057C0001222021534801F044FC01224FF48071E8
:10058C00504801F03EFC8DE0012220214D4801F045
:10059C0038FC012240214B4801F033FC0022802121
:1005AC00484801F02EFC00224FF48071454801F0C0
:1005BC0028FC01224FF40071424801F022FC012278
:1005CC004FF480613F4801F01CFC404B1B68012B31
:1005DC000BD13B4B05221A603D4B1B684FF47A72D2
:1005EC0002FB03F3184600F047FFFFF7A9FD034693
:1005FC00012B59D1324B0A221A6001222021314899
:10060C0001F0FFFB01224FF480712E4801F0F9FB41
:10061C004AE0012220212B4801F0F3FB002240216B
:10062C00284801F0EEFB01228021264801F0E9FB6D
:10063C0000224FF48071234801F0E3FB01224FF4B8
:10064C000071204801F0DDFB01224FF480611D4850
:10065C0001F0D7FB1D4B1B68012B0BD1184B022251
:10066C001A60194B1B684FF47A7202FB03F318469D
:10067C0000F002FFFFF764FD0346012B16D1104B6F
:10068C000A221A60012220210E4801F0BAFB012235
:10069C004FF480710B4801F0B4FB07E000BF06E09B
:1006AC0000BF04E000BF02E000BF00E000BF00BFDD
:1006BC0080BD00BF00010020F80000209000002049
:1006CC008C0000200008014044000020F0000020B5
:1006DC004000002080B500AF874B1B680A3B152BF0
:1006EC0000F20B8301A252F823F000BF510700085F
:1006FC0041080008070D0008070D0008070D000849
:10070C00070D0008070D0008070D0008070D00086D
:10071C00070D00082D0900081D0A0008070D000828
:10072C00070D0008070D0008070D0008070D00084D
:10073C00070D0008070D0008070D0008E10A000866
:10074C00390C000800F0B4FE00F0DEFE00F008FFEB
:10075C0001224021694801F054FB012280216748A5
:10076C0001F04FFB01224FF40071644801F049FB8A
:10077C0001224FF48061614801F043FB604B1B6820
:10078C00012B0CD120215D4801F053FB4FF48071FB
:10079C005A4801F04EFB4FF4FA7000F051FE594BE1
:1007AC001B68012B26D1584B00221A60564B022293
:1007BC005A60564B1B68564A82FB03129210DB1789
:1007CC00D31A514A9360514B1968514B83FB012347
:1007DC009A10CB17D21A13469B0013445B00CA1A0B
:1007EC00494BDA604B4B1B68184600F017FB7D2019
:1007FC0000F0C6FEFFF7A4FC0346012B02D13E4BD2
:10080C0014221A60FFF7AEFC0346012B0FD13A4BB2
:10081C000B221A603D4B1B68622B03DD3B4B012204
:10082C001A6004E0394B1B680133384A1360FFF738
:10083C00ABFC69E2324B1B68012B0CD120212F48F9
:10084C0001F0F7FA4FF480712C4801F0F2FA4FF4F2
:10085C00FA7000F0F5FD2B4B1B68012B20D12B4BB4
:10086C001B682B4A82FB03129210DB17D31A264A01
:10087C009360264B1968264B83FB01239A10CB17E8
:10088C00D21A13469B0013445B00CA1A1E4BDA6043
:10089C00204B1B68184600F0C1FA7D2000F070FE5A
:1008AC00FFF760FC0346012B0CD1184B1B68622B25
:1008BC0003DD164B01221A6004E0144B1B68013354
:1008CC00124A1360FFF73CFCFFF75EFC0346012B5A
:1008DC0040F015820D4B1A680F4B1B689A4240F37F
:1008EC000E820A4B1A680C4B1B68D31A0B4A136006
:1008FC00014B0A221A6002E28C0000200008014021
:10090C00E800002008010020480000203C000020E6
:10091C0067666666900000204000002044000020BE
:10092C0000F0C6FD00F0F0FD00F01AFE01222021BF
:10093C00AB4801F066FA01228021A94801F061FA66
:10094C0001224FF48071A64801F05BFA01224FF4AA
:10095C008061A34801F055FAA24B1B68012B0CD106
:10096C0040219F4801F065FA4FF400719C4801F05A
:10097C0060FA4FF4FA7000F063FD9B4B1B68012B7F
:10098C0026D19A4B00221A60984B03225A60984B3E
:10099C001B68984A82FB03129210DB17D31A934AF6
:1009AC009360934B1968934B83FB01239A10CB17DD
:1009BC00D21A13469B0013445B00CA1A8B4BDA60A5
:1009CC008D4B1B68184600F029FA7D2000F0D8FDED
:1009DC00FFF7B6FB0346012B02D1884B1E221A608F
:1009EC00FFF7C0FB0346012B0FD1844B15221A6075
:1009FC007F4B1B68042B03DD7D4B01221A6004E046
:100A0C007B4B1B6801337A4A1360FFF7BDFB7BE11C
:100A1C00744B1B68012B0CD14021714801F009FA71
:100A2C004FF400716E4801F004FA4FF4FA7000F0C4
:100A3C0007FD6D4B1B68012B20D16D4B1B686D4A5C
:100A4C0082FB03129210DB17D31A684A9360684B2F
:100A5C001968684B83FB01239A10CB17D21A1346E3
:100A6C009B0013445B00CA1A604BDA60624B1B6834
:100A7C00184600F0D3F97D2000F082FDFFF772FBE1
:100A8C000346012B0CD15A4B1B68042B03DD584B2E
:100A9C0001221A6004E0564B1B680133544A136060
:100AAC00FFF74EFBFFF770FB0346012B40F029814B
:100ABC00534B1A684E4B1B689A4240F32281504BA1
:100ACC001A684B4B1B68D31A4E4A13604B4B1422BB
:100ADC001A6016E100F0ECFC00F016FD00F040FD91
:100AEC00012220213E4801F08CF9012240213C4892
:100AFC0001F087F901224FF48071394801F081F936
:100B0C0001224FF40071364801F07BF9354B1B681C
:100B1C00012B0CD18021324801F08BF94FF480610C
:100B2C002F4801F086F94FF4FA7000F089FC2E4B37
:100B3C001B68012B26D12D4B00221A602B4B042253
:100B4C005A60304B1B682B4A82FB03129210DB1746
:100B5C00D31A264A93602B4B1968264B83FB01232F
:100B6C009A10CB17D21A13469B0013445B00CA1A77
:100B7C001E4BDA60204B1B68184600F04FF97D20A5
:100B8C0000F0FEFCFFF7DCFA0346012B17D11B4BE0
:100B9C0001221A6000F08CFC00F0B6FC00F0E0FCC6
:100BAC00194B00221A60194B00221A60184B0122B3
:100BBC001A60184B01221A60174B01221A60FFF7BA
:100BCC00D1FA0346012B2ED10C4B1F221A600D4B70
:100BDC001B68622B22DD0B4B01221A6023E000BF45
:100BEC0000080140E8000020080100204800002017
:100BFC004000002067666666900000208C00002094
:100C0C003C000020440000209400002098000020AC
:100C1C00F0000020F8000020000100203B4B1B6876
:100C2C0001333A4A1360FFF7AFFA6DE0384B1B689B
:100C3C00012B0CD18021374801F0FBF84FF4806177
:100C4C00344801F0F6F84FF4FA7000F0F9FB324B2F
:100C5C001B68012B20D12D4B1B68304A82FB0312E1
:100C6C009210DB17D31A2E4A9360284B19682B4B22
:100C7C0083FB01239A10CB17D21A13469B00134403
:100C8C005B00CA1A264BDA60264B1B68184600F02C
:100C9C00C5F87D2000F074FCFFF764FA0346012BC5
:100CAC000CD11A4B1B68622B03DD184B01221A6006
:100CBC0004E0164B1B680133144A1360FFF740FA2B
:100CCC00FFF762FA0346012B1DD1104B1A68164B25
:100CDC001B681344632B16DC0C4B1A68124B1B68F5
:100CEC009A4210DD094B1A680F4B1B6813440F4ACC
:100CFC0013600F4B1E221A6005E000BF04E000BF1A
:100D0C0002E000BF00E000BF00BF80BD4400002037
:100D1C00E8000020000801400801002067666666B4
:100D2C004800002090000020400000203C000020E3
:100D3C008C000020B0B58EB000AF7860354B07F159
:100D4C0008041D460FCD0FC40FCD0FC495E803004A
:100D5C0084E803007B689B0038333B4453F8303CF9
:100D6C00DB437B637B6B03F001033B633B6BDBB2CD
:100D7C001A460121284801F044F87B6B5B1003F004
:100D8C0001033B633B6BDBB21A460221224801F0A4
:100D9C0038F87B6B9B1003F001033B633B6BDBB2BE
:100DAC001A4604211C4801F02CF87B6BDB1003F075
:100DBC0001033B633B6BDBB21A460821164801F07A
:100DCC0020F87B6B1B1103F001033B633B6BDBB225
:100DDC001A461021104801F014F87B6B5B1103F0DC
:100DEC0001033B633B6BDBB21A4620210A4801F03E
:100DFC0008F87B6B9B1103F001033B633B6BDBB28D
:100E0C001A464021044800F0FCFF00BF3837BD46AD
:100E1C00B0BD00BF782E0008000C014080B582B038
:100E2C0000AF78607B68032B00F2988001A252F827
:100E3C0023F000BF510E0008970E0008DD0E0008CD
:100E4C00230F0008484A7B6852F823301846FFF7F6
:100E5C0071FF464B01221A6001224FF40061444895
:100E6C0000F0CFFF00224FF48051414800F0C9FF41
:100E7C0000224FF400513E4800F0C3FF00224FF413
:100E8C0080413B4800F0BDFF69E0374A7B6852F86F
:100E9C0023301846FFF74EFF344B02221A60002213
:100EAC004FF40061324800F0ACFF01224FF4805146
:100EBC002F4800F0A6FF00224FF400512C4800F000
:100ECC00A0FF00224FF48041294800F09AFF46E031
:100EDC00254A7B6852F823301846FFF72BFF234B2B
:100EEC0003221A6000224FF40061214800F089FFB0
:100EFC0000224FF480511E4800F083FF01224FF472
:100F0C0000511B4800F07DFF00224FF4804118482F
:100F1C0000F077FF23E0144A7B6852F82330184620
:100F2C00FFF708FF114B00221A6000224FF40061FA
:100F3C000F4800F066FF00224FF480510C4800F07F
:100F4C0060FF00224FF40051094800F05AFF0122C3
:100F5C004FF48041064800F054FF00E000BF00BF92
:100F6C000837BD4680BD00BF48000020900000201F
:100F7C000008014080B400AF954B1A68954B1B6874
:100F8C009A421FDA934B1A68914B1B68D31A924AF8
:100F9C0082FB03129210DB17D31A904A13608D4B0D
:100FAC001A688B4B1B68D11A8B4B83FB01239A104D
:100FBC00CB17D21A13469B0013445B00CA1A874BFB
:100FCC005A6059E0834B1A68854B1B681A44804B56
:100FDC001B689A4225DD7F4B1A68814B1B681A44AB
:100FEC007B4B1B68D31A7C4A82FB03129210DB17D3
:100FFC00D31A7A4A1360774B1A68794B1B681A44D8
:10100C00734B1B68D11A744B83FB01239A10CB17BB
:10101C00D21A13469B0013445B00CA1A6F4B5A60DA
:10102C002AE06C4B1A686E4B1B681A446D4B1B689C
:10103C001A44674B1B68D31A674A82FB031292103F
:10104C00DB17D31A654A1360624B1A68644B1B6832
:10105C001A44644B1B681A445D4B1B68D11A5E4BD7
:10106C0083FB01239A10CB17D21A13469B0013440F
:10107C005B00CA1A594B5A60554B1B680133544AD2
:10108C001360544B1A68564B1B681A44554B1B681B
:10109C001A444F4B1B689A4202DC4D4B00221A60DB
:1010AC00514B1A684E4B1B689A421FDA4C4B1A680C
:1010BC004D4B1B68D31A484A82FB03129210DB1764
:1010CC00D31A464A9360464B1A68474B1B68D11A91
:1010DC00414B83FB01239A10CB17D21A13469B006A
:1010EC0013445B00CA1A3D4BDA6059E03C4B1A685A
:1010FC003C4B1B681A443C4B1B689A4225DD384B11
:10110C001A68384B1B681A44374B1B68D31A324A7F
:10111C0082FB03129210DB17D31A304A9360304BC8
:10112C001A68304B1B681A442F4B1B68D11A2A4B78
:10113C0083FB01239A10CB17D21A13469B0013443E
:10114C005B00CA1A254BDA602AE0224B1A68244B42
:10115C001B681A44234B1B681A44234B1B68D31A75
:10116C001D4A82FB03129210DB17D31A1B4A9360A1
:10117C00184B1A681A4B1B681A441A4B1B681A44F2
:10118C00194B1B68D11A144B83FB01239A10CB17F4
:10119C00D21A13469B0013445B00CA1A0F4BDA6039
:1011AC00114B1B680133104A13600A4B1A680C4B25
:1011BC001B681A440B4B1B681A440B4B1B689A4256
:1011CC0002DC094B00221A6000BFBD4680BC704790
:1011DC00940000203C0000206766666648000020F2
:1011EC0044000020400000209800002080B500AF93
:1011FC0000F004FB00F026F800F0ACF800F05EF80C
:10120C000E4801F067FA4FF47A7000F019F94FF4B8
:10121C007A7000F031F90A2000F05AF90A2000F037
:10122C0083F94FF47A7000F0ABF9054B01221A6088
:10123C00FFF7C4F8FFF74EFAFAE700BF9C00002056
:10124C008C00002080B590B000AF07F11803282265
:10125C000021184601F0F6FD3B1D00221A605A6071
:10126C009A60DA601A610223BB610123BB6210230E
:10127C00FB6200237B6307F11803184600F0F2FDB4
:10128C000346002B01D000F0D5F80F237B60002320
:10129C00BB600023FB6000233B6100237B613B1D93
:1012AC000021184601F060F80346002B01D000F035
:1012BC00C1F800BF4037BD4680BD000080B586B088
:1012CC0000AF07F1080300221A605A609A60DA60D6
:1012DC003B4600221A605A601D4B4FF080421A6048
:1012EC001B4B41F63F725A60194B00229A60184B07
:1012FC000922DA60164B00221A61154B00229A6102
:10130C00134801F097F90346002B01D000F092F836
:10131C004FF48053BB6007F1080319460C4801F0E9
:10132C002DFB0346002B01D000F084F800233B601A
:10133C0000237B603B461946054801F0F5FC03464B
:10134C00002B01D000F076F800BF1837BD4680BDE9
:10135C009C00002080B586B000AF07F10803002286
:10136C001A605A609A60DA60274B9B69264A43F0F0
:10137C0004039361244B9B6903F004037B607B683B
:10138C00214B9B69204A43F0080393611E4B9B69D8
:10139C0003F008033B603B68002247F6E0711B48F2
:1013AC0000F02FFD00227F21194800F02AFD0E23AA
:1013BC00BB600023FB6001233B6107F10803194666
:1013CC00124800F08BFB47F6E073BB600123FB6017
:1013DC0000233B6102237B6107F1080319460B488C
:1013EC0000F07CFB7F23BB600123FB6000233B618F
:1013FC0002237B6107F108031946054800F06EFBD8
:10140C0000BF1837BD4680BD0010024000080140E7
:10141C00000C014080B582B000AF786000F0CCF8D1
:10142C00FEF7E8FEFEF732FFFEF77CFF00BF083741
:10143C00BD4680BD80B400AF72B600BFFEE70000B1
:10144C0080B483B000AF78607B68084A82FB0312DB
:10145C009210DB17D31A064A1360064B00221A604F
:10146C0000BF0C37BD4680BC704700BF6766666620
:10147C00E4000020E800002080B483B000AF786066
:10148C007B68084A82FB03129210DB17D31A064AB8
:10149C001360064B00221A6000BF0C37BD4680BC9F
:1014AC00704700BF67666666EC000020F000002005
:1014BC0080B400AF044B00221A60044B00221A6067
:1014CC0000BFBD4680BC7047EC000020F00000203F
:1014DC0080B483B000AF78607B68084A82FB03124B
:1014EC009210DB17D31A064A1360064B00221A60BF
:1014FC0000BF0C37BD4680BC704700BF6766666690
:10150C00F4000020F800002080B400AF044B00224F
:10151C001A60044B00221A6000BFBD4680BC7047A5
:10152C00F4000020F800002080B483B000AF786095
:10153C007B68084A82FB03129210DB17D31A064A07
:10154C001360064B00221A6000BF0C37BD4680BCEE
:10155C00704700BF67666666FC0000200001002033
:10156C0080B400AF044B00221A60044B00221A60B6
:10157C0000BFBD4680BC7047FC000020000100206D
:10158C0080B483B000AF78607B68084A82FB03129A
:10159C009210DB17D31A064A1360064B00221A600E
:1015AC0000BF0C37BD4680BC704700BF67666666DF
:1015BC00040100200801002080B400AF314B1B68EF
:1015CC00002B0BDD2F4B1B68013B2E4A13602D4B60
:1015DC001B68002B02D12C4B01221A602B4B1B6871
:1015EC00002B0BDD294B1B68013B284A1360274B52
:1015FC001B68002B02D1264B01221A60254B1B685D
:10160C00002B0BDD234B1B68013B224A1360214B43
:10161C001B68002B02D1204B01221A601F4B1B6848
:10162C00002B0BDD1D4B1B68013B1C4A13601B4B35
:10163C001B68002B02D11A4B01221A60194B1B6834
:10164C00002B0BDD174B1B68013B164A1360154B27
:10165C001B68002B02D1144B01221A60134B1B6820
:10166C00002B0BDD114B1B68013B104A13600F4B19
:10167C001B68002B02D10E4B01221A6000BFBD4625
:10168C0080BC7047E4000020E8000020EC00002043
:10169C00F0000020F4000020F8000020FC000020E6
:1016AC000001002004010020080100200C01002092
:1016BC001001002080B483B000AF0E4B9B690D4A23
:1016CC0043F0010393610B4B9B6903F001037B60B7
:1016DC007B68084BDB69074A43F08053D361054BA9
:1016EC00DB6903F080533B603B6800BF0C37BD46A1
:1016FC0080BC70470010024080B584B000AF7860A9
:10170C007B681B68B3F1804F13D10C4BDB690B4A20
:10171C0043F00103D361094BDB6903F00103FB6068
:10172C00FB68002200211C2000F0A1F91C2000F015
:10173C00BAF900BF1037BD4680BD00BF0010024093
:10174C0080B400AFFEE780B400AFFEE780B400AF1A
:10175C00FEE780B400AFFEE780B400AFFEE780B4D4
:10176C0000AF00BFBD4680BC704780B400AF00BF67
:10177C00BD4680BC704780B400AF00BFBD4680BC86
:10178C00704780B500AF00F07FF800BF80BD00004F
:10179C0080B500AF024800F0E9FF00BF80BD00BF7C
:1017AC009C00002080B400AF00BFBD4680BC7047D9
:1017BC000C480D490D4A002302E0D458C4500433A0
:1017CC00C4188C42F9D30A4A0A4C002301E0136076
:1017DC000432A242FBD3FFF7E5FF01F00FFBFFF74A
:1017EC0005FD70470000002064000020C82E000892
:1017FC006400002018010020FEE7000080B500AF57
:10180C00084B1B68074A43F010031360032000F0D9
:10181C0023F90F2000F008F8FFF74CFF00231846BF
:10182C0080BD00BF0020024080B582B000AF786060
:10183C00124B1A68124B1B7819464FF47A73B3FB90
:10184C00F1F3B2FBF3F3184600F03BF90346002B1F
:10185C0001D001230EE07B680F2B0AD80022796897
:10186C004FF0FF3000F003F9064A7B681360002349
:10187C0000E0012318460837BD4680BD5800002003
:10188C00600000205C00002080B400AF054B1B788A
:10189C001A46054B1B681344034A136000BFBD4630
:1018AC0080BC7047600000201401002080B400AFA1
:1018BC00024B1B681846BD4680BC704714010020C3
:1018CC0080B485B000AF78607B6803F00703FB60E1
:1018DC000C4BDB68BB60BA684FF6FF031340BB6070
:1018EC00FB681A02BB68134343F0BF6343F4003335
:1018FC00BB60044ABB68D36000BF1437BD4680BCD4
:10190C00704700BF00ED00E080B400AF044BDB6813
:10191C001B0A03F007031846BD4680BC704700BF86
:10192C0000ED00E080B483B000AF0346FB7197F983
:10193C000730002B0BDBFB7903F01F02064997F9EC
:10194C0007305B09012000FA02F241F8232000BFA6
:10195C000C37BD4680BC704700E100E080B483B01A
:10196C0000AF03463960FB7197F90730002B0ADB97
:10197C003B68DAB20C4997F907301201D2B20B442A
:10198C0083F800230AE03B68DAB20849FB7903F0DC
:10199C000F03043B1201D2B20B441A7600BF0C3772
:1019AC00BD4680BC704700BF00E100E000ED00E0E8
:1019BC0080B489B000AFF860B9607A60FB6803F05E
:1019CC000703FB61FB69C3F10703042B28BF042346
:1019DC00BB61FB690433062B02D9FB69033B00E0B6
:1019EC0000237B614FF0FF32BB6902FA03F3DA4349
:1019FC00BB681A407B699A404FF0FF317B6901FA52
:101A0C0003F3D9437B680B40134318462437BD4678
:101A1C0080BC704780B582B000AF78607B68013BBA
:101A2C00B3F1807F01D301230FE00A4A7B68013BAD
:101A3C0053600F214FF0FF30FFF790FF054B002252
:101A4C009A60044B07221A60002318460837BD46DB
:101A5C0080BD00BF10E000E080B582B000AF7860C0
:101A6C007868FFF72DFF00BF0837BD4680BD80B5F5
:101A7C0086B000AF0346B9607A60FB7300237B61CC
:101A8C00FFF742FF78617A68B9687869FFF790FFD1
:101A9C00024697F90F3011461846FFF75FFF00BF5B
:101AAC001837BD4680BD80B582B000AF0346FB71D0
:101ABC0097F907301846FFF735FF00BF0837BD46CA
:101ACC0080BD80B582B000AF78607868FFF7A2FF68
:101ADC00034618460837BD4680BD000080B48BB065
:101AEC0000AF7860396000237B6200233B6261E1C8
:101AFC0001227B6A02FA03F3FB613B681B68FA69FB
:101B0C001340BB61BA69FB699A4240F050813B6853
:101B1C005B68974A93425ED0954A934275D8954A32
:101B2C00934258D0934A93426FD8934A934252D0DF
:101B3C00914A934269D8914A93424CD08F4A93422E
:101B4C0063D88F4A934246D08D4A93425DD8122B6C
:101B5C002AD8122B59D801A252F823F0E31B000803
:101B6C00BD1B0008CF1B0008111C0008171C000827
:101B7C00171C0008171C0008171C0008171C00086D
:101B8C00171C0008171C0008171C0008171C00085D
:101B9C00171C0008171C0008171C0008171C00084D
:101BAC00C51B0008D91B0008764A934213D02CE0C1
:101BBC003B68DB683B6229E03B68DB6804333B62D3
:101BCC0024E03B68DB6808333B621FE03B68DB6862
:101BDC000C333B621AE03B689B68002B02D1042358
:101BEC003B6213E03B689B68012B05D108233B62E9
:101BFC007B68FA691A6109E008233B627B68FA6921
:101C0C005A6103E000233B6200E000BFBB69FF2B7D
:101C1C0001D87B6801E07B6804337B61BB69FF2BD7
:101C2C0002D87B6A9B0002E07B6A083B9B003B610D
:101C3C007B691A680F213B6901FA03F3DB431A40F5
:101C4C00396A3B6901FA03F31A437B691A603B68F2
:101C5C005B6803F08053002B00F0A9804A4B9B6912
:101C6C00494A43F001039361474B9B6903F001031D
:101C7C00BB60BB68454A7B6A9B08023352F8233031
:101C8C00FB607B6A03F003039B000F2202FA03F351
:101C9C00DB43FA681340FB607B683D4A93420DD0EE
:101CAC007B683C4A934207D07B683B4A934201D104
:101CBC00022304E0032302E0012300E000237A6AFC
:101CCC0002F0030292009340FA681343FB602F4921
:101CDC007B6A9B080233FA6841F823203B685B68F7
:101CEC0003F48033002B06D02C4B1A682B49BB69AC
:101CFC0013430B6006E0294B1A68BB69DB43274989
:101D0C0013400B603B685B6803F40033002B06D078
:101D1C00224B5A682149BB6913434B6006E01F4BA9
:101D2C005A68BB69DB431D4913404B603B685B68D9
:101D3C0003F48013002B06D0184B9A681749BB6923
:101D4C0013438B6006E0154B9A68BB69DB43134960
:101D5C0013408B603B685B6803F40013002B1FD0AF
:101D6C000E4BDA680D49BB691343CB601FE000BF13
:101D7C000000321000003110000022100000211071
:101D8C000000121000001110001002400000014071
:101D9C0000080140000C014000100140000401400B
:101DAC000B4BDA68BB69DB4309491340CB607B6A98
:101DBC0001337B623B681A687B6A22FA03F3002BBF
:101DCC007FF496AE00BF00BF2C37BD4680BC704779
:101DDC000004014080B485B000AF78600B467B8076
:101DEC007B689A687B881340002B02D00123FB731D
:101DFC0001E00023FB73FB7B18461437BD4680BC07
:101E0C00704780B483B000AF78600B467B8013467C
:101E1C007B707B78002B03D07A887B681A6103E097
:101E2C007B881A047B681A6100BF0C37BD4680BCE6
:101E3C00704780B485B000AF78600B467B807B68C0
:101E4C00DB68FB607A88FB6813401A04FB68D94393
:101E5C007B880B401A437B681A6100BF1437BD4660
:101E6C0080BC704780B586B000AF78607B68002B73
:101E7C0001D1012372E27B681B6803F00103002B84
:101E8C0000F08780924B5B6803F00C03042B0CD0A2
:101E9C008F4B5B6803F00C03082B12D18C4B5B68E7
:101EAC0003F48033B3F5803F0BD1894B1B6803F4EB
:101EBC000033002B6CD07B685B68002B68D101234E
:101ECC004CE27B685B68B3F5803F06D1804B1B68A6
:101EDC007F4A43F4803313602EE07B685B68002BF1
:101EEC000CD17B4B1B687A4A23F480331360784BFC
:101EFC001B68774A23F4802313601DE07B685B68C2
:101F0C00B3F5A02F0CD1724B1B68714A43F480239C
:101F1C0013606F4B1B686E4A43F4803313600BE005
:101F2C006B4B1B686A4A23F480331360684B1B6845
:101F3C00674A23F4802313607B685B68002B13D003
:101F4C00FFF7B4FC386108E0FFF7B0FC02463B69D0
:101F5C00D31A642B01D9032300E25D4B1B6803F4F5
:101F6C000033002BF0D014E0FFF7A0FC386108E040
:101F7C00FFF79CFC02463B69D31A642B01D903235F
:101F8C00ECE1534B1B6803F40033002BF0D100E061
:101F9C0000BF7B681B6803F00203002B63D04C4B23
:101FAC005B6803F00C03002B0BD0494B5B6803F010
:101FBC000C03082B1CD1464B5B6803F48033002BBD
:101FCC0016D1434B1B6803F00203002B05D07B6832
:101FDC001B69012B01D00123C0E13D4B1B6823F091
:101FEC00F8027B685B69DB00394913430B603AE00C
:101FFC007B681B69002B20D0364B01221A60FFF73F
:10200C0055FC386108E0FFF751FC02463B69D31AD6
:10201C00022B01D90323A1E12D4B1B6803F0020312
:10202C00002BF0D02A4B1B6823F0F8027B685B690D
:10203C00DB00274913430B6015E0264B00221A6086
:10204C00FFF734FC386108E0FFF730FC02463B69CF
:10205C00D31A022B01D9032380E11D4B1B6803F01B
:10206C000203002BF0D17B681B6803F00803002BE4
:10207C003AD07B689B69002B19D0174B01221A6050
:10208C00FFF714FC386108E0FFF710FC02463B69CF
:10209C00D31A022B01D9032360E10D4B5B6A03F0C9
:1020AC000203002BF0D0012000F0A6FA1CE00A4B32
:1020BC0000221A60FFF7FAFB38610FE0FFF7F6FB1E
:1020CC0002463B69D31A022B08D9032346E100BF11
:1020DC00001002400000424280044242924B5B6A74
:1020EC0003F00203002BE9D17B681B6803F00403A7
:1020FC00002B00F0A6800023FB758B4BDB6903F0F3
:10210C008053002B0DD1884BDB69874A43F08053F9
:10211C00D361854BDB6903F08053BB60BB68012343
:10212C00FB75824B1B6803F48073002B18D17F4B1B
:10213C001B687E4A43F480731360FFF7B7FB38616A
:10214C0008E0FFF7B3FB02463B69D31A642B01D9B5
:10215C00032303E1754B1B6803F48073002BF0D051
:10216C007B68DB68012B06D16F4B1B6A6E4A43F010
:10217C00010313622DE07B68DB68002B0CD16A4BEA
:10218C001B6A694A23F001031362674B1B6A664A98
:10219C0023F0040313621CE07B68DB68052B0CD175
:1021AC00614B1B6A604A43F0040313625E4B1B6A6B
:1021BC005D4A43F0010313620BE05B4B1B6A5A4A06
:1021CC0023F001031362584B1B6A574A23F0040394
:1021DC0013627B68DB68002B15D0FFF767FB386157
:1021EC000AE0FFF763FB02463B69D31A41F28832DF
:1021FC00934201D90323B1E04B4B1B6A03F002035A
:10220C00002BEED014E0FFF751FB38610AE0FFF72A
:10221C004DFB02463B69D31A41F28832934201D9F5
:10222C0003239BE0404B1B6A03F00203002BEED10F
:10223C00FB7D012B05D13C4BDB693B4A23F08053E2
:10224C00D3617B68DB69002B00F08780364B5B68C1
:10225C0003F00C03082B61D07B68DB69022B46D1A1
:10226C00334B00221A60FFF721FB386108E0FFF7BF
:10227C001DFB02463B69D31A022B01D903236DE0E7
:10228C00294B1B6803F00073002BF0D17B681B6A91
:10229C00B3F5803F08D1244B5B6823F400327B6894
:1022AC009B68214913434B601F4B5B6823F47412EA
:1022BC007B68196A7B685B6A0B431B4913434B6051
:1022CC001B4B01221A60FFF7F1FA386108E0FFF7A7
:1022DC00EDFA02463B69D31A022B01D903233DE0E8
:1022EC00114B1B6803F00073002BF0D035E0104B42
:1022FC0000221A60FFF7DAFA386108E0FFF7D6FA25
:10230C0002463B69D31A022B01D9032326E0064B64
:10231C001B6803F00073002BF0D11EE07B68DB69B7
:10232C00012B07D1012319E000100240007000407E
:10233C00600042420B4B5B68FB60FB6803F480322D
:10234C007B681B6A9A4206D1FB6803F470127B68A7
:10235C005B6A9A4201D0012300E00023184618372B
:10236C00BD4680BD0010024080B584B000AF7860DF
:10237C0039607B68002B01D10123D0E06A4B1B68CC
:10238C0003F007033A689A4210D9674B1B6823F095
:10239C00070265493B6813430B60634B1B6803F0F2
:1023AC0007033A689A4201D00123B8E07B681B68A6
:1023BC0003F00203002B20D07B681B6803F004039E
:1023CC00002B05D0594B5B68584A43F4E0635360CB
:1023DC007B681B6803F00803002B05D0534B5B682C
:1023EC00524A43F460535360504B5B6823F0F00245
:1023FC007B689B684D4913434B607B681B6803F0FB
:10240C000103002B40D07B685B68012B07D1474B45
:10241C001B6803F40033002B15D101237FE07B688C
:10242C005B68022B07D1414B1B6803F00073002B38
:10243C0009D1012373E03D4B1B6803F00203002B11
:10244C0001D101236BE0394B5B6823F003027B68FD
:10245C005B68364913434B60FFF728FAF8600AE0D3
:10246C00FFF724FA0246FB68D31A41F288329342F2
:10247C0001D9032353E02D4B5B6803F00C027B68FE
:10248C005B689B009A42EBD1274B1B6803F0070358
:10249C003A689A4210D2244B1B6823F00702224957
:1024AC003B6813430B60204B1B6803F007033A682F
:1024BC009A4201D0012332E07B681B6803F00403CD
:1024CC00002B08D0194B5B6823F4E0627B68DB6857
:1024DC00164913434B607B681B6803F00803002B01
:1024EC0009D0124B5B6823F460527B681B69DB00DC
:1024FC000E4913434B6000F021F802460B4B5B680E
:10250C001B0903F00F030A49CB5C22FA03F3094AB7
:10251C001360094B1B681846FFF786F90023184611
:10252C001037BD4680BD00BF0020024000100240A5
:10253C00B02E0008580000205C00002090B48AB037
:10254C0000AF294B3C1D0FCB84E80F0040F2012358
:10255C003B800023FB610023BB6100237B620023D3
:10256C007B6100233B62214B5B68FB61FB6903F0E1
:10257C000C03042B02D0082B03D02BE01C4B3B622A
:10258C002BE0FB699B0C03F00F0328333B4413F83F
:10259C00243C7B61FB6903F48033002B12D0134B7A
:1025AC005B685B0C03F0010328333B4413F8283CB5
:1025BC00BB617B690E4A03FB02F2BB69B2FBF3F30E
:1025CC007B6204E07B690B4A02FB03F37B627B6A50
:1025DC003B6202E0064B3B6200BF3B6A1846283761
:1025EC00BD4690BC704700BFA02E000800100240F2
:1025FC0000127A0000093D0080B485B000AF78600D
:10260C000A4B1B680A4AA2FB03235B0A7A6802FB8B
:10261C0003F3FB6000BFFB685A1EFA60002BF9D174
:10262C0000BF00BF1437BD4680BC70475800002067
:10263C00D34D621080B582B000AF78607B68002B00
:10264C0001D1012341E07B6893F83D30DBB2002BD4
:10265C0006D17B68002283F83C207868FFF74CF8A1
:10266C007B68022283F83D207B681A687B68043300
:10267C001946104600F06AFA7B68012283F846205E
:10268C007B68012283F83E207B68012283F83F207F
:10269C007B68012283F840207B68012283F841206B
:1026AC007B68012283F842207B68012283F8432057
:1026BC007B68012283F844207B68012283F8452043
:1026CC007B68012283F83D20002318460837BD465D
:1026DC0080BD000080B485B000AF78607B6893F853
:1026EC003D30DBB2012B01D0012335E07B680222A7
:1026FC0083F83D207B681B68DA687B681B6842F0B6
:10270C000102DA607B681B68164A934209D07B6829
:10271C001B68B3F1804F04D07B681B68124A93424C
:10272C0011D17B681B689B6803F00703FB60FB6897
:10273C00062B10D07B681B681A687B681B6842F0FC
:10274C0001021A6007E07B681B681A687B681B68CB
:10275C0042F001021A60002318461437BD4680BCB3
:10276C00704700BF002C01400004004080B582B0CF
:10277C0000AF78607B681B681B6903F00203022BB7
:10278C0022D17B681B68DB6803F00203022B1BD190
:10279C007B681B686FF002021A617B6801221A7752
:1027AC007B681B689B6903F00303002B03D07868DC
:1027BC0000F0B1F905E0786800F0A4F9786800F051
:1027CC00B3F97B6800221A777B681B681B6903F0DE
:1027DC000403042B22D17B681B68DB6803F0040321
:1027EC00042B1BD17B681B686FF004021A617B6899
:1027FC0002221A777B681B689B6903F44073002BD9
:10280C0003D0786800F087F905E0786800F07AF971
:10281C00786800F089F97B6800221A777B681B685E
:10282C001B6903F00803082B22D17B681B68DB684B
:10283C0003F00803082B1BD17B681B686FF00802A0
:10284C001A617B6804221A777B681B68DB6903F0CA
:10285C000303002B03D0786800F05DF905E078687D
:10286C0000F050F9786800F05FF97B6800221A7765
:10287C007B681B681B6903F01003102B22D17B684B
:10288C001B68DB6803F01003102B1BD17B681B68E3
:10289C006FF010021A617B6808221A777B681B683C
:1028AC00DB6903F44073002B03D0786800F033F934
:1028BC0005E0786800F026F9786800F035F97B6857
:1028CC0000221A777B681B681B6903F00103012B3C
:1028DC000ED17B681B68DB6803F00103012B07D169
:1028EC007B681B686FF001021A617868FEF792FD35
:1028FC007B681B681B6903F08003802B0ED17B68FF
:10290C001B68DB6803F08003802B07D17B681B6896
:10291C006FF080021A61786800F067FA7B681B68B8
:10292C001B6903F04003402B0ED17B681B68DB68EE
:10293C0003F04003402B07D17B681B686FF040020B
:10294C001A61786800F0F9F87B681B681B6903F062
:10295C002003202B0ED17B681B68DB6803F020035F
:10296C00202B07D17B681B686FF020021A617868F6
:10297C0000F032FA00BF0837BD4680BD80B584B088
:10298C0000AF786039607B6893F83C30012B01D143
:10299C000223B3E07B68012283F83C207B6802228F
:1029AC0083F83D207B681B689B68FB60FB6823F009
:1029BC007703FB60FB6823F47F43FB607B681B6839
:1029CC00FA689A603B681B68B3F5005F3ED0B3F5BC
:1029DC00005F00F28780B3F5805F00F08580B3F56F
:1029EC00805F7FD8702B1AD0702B7BD8602B50D087
:1029FC00602B77D8502B3CD0502B73D8402B58D011
:102A0C00402B6FD8302B64D0302B6BD8202B60D060
:102A1C00202B67D8002B5CD0102B5AD062E07B683F
:102A2C0018683B6899683B685A683B68DB6800F03B
:102A3C005CF97B681B689B68FB60FB6843F0770361
:102A4C00FB607B681B68FA689A604EE07B681868CC
:102A5C003B6899683B685A683B68DB6800F045F94D
:102A6C007B681B689A687B681B6842F480429A609A
:102A7C003BE07B6818683B6859683B68DB681A4622
:102A8C0000F0BCF87B681B685021184600F013F965
:102A9C002BE07B6818683B6859683B68DB681A4612
:102AAC0000F0DAF87B681B686021184600F003F927
:102ABC001BE07B6818683B6859683B68DB681A4602
:102ACC0000F09CF87B681B684021184600F0F3F876
:102ADC000BE07B681A683B681B681946104600F0CF
:102AEC00EAF802E000BF00E000BF7B68012283F837
:102AFC003D207B68002283F83C20002318461037C9
:102B0C00BD4680BD80B483B000AF786000BF0C3789
:102B1C00BD4680BC704780B483B000AF786000BF06
:102B2C000C37BD4680BC704780B483B000AF786072
:102B3C0000BF0C37BD4680BC704780B483B000AF7B
:102B4C00786000BF0C37BD4680BC704780B485B040
:102B5C0000AF786039607B681B68FB607B68254A36
:102B6C00934207D07B68B3F1804F03D07B68224A35
:102B7C00934208D1FB6823F07003FB603B685B68F1
:102B8C00FA681343FB607B681A4A934207D07B6850
:102B9C00B3F1804F03D07B68174A934208D1FB688E
:102BAC0023F44073FB603B68DB68FA681343FB60FB
:102BBC00FB6823F080023B685B691343FB607B6816
:102BCC00FA681A603B689A687B68DA623B681A6834
:102BDC007B689A627B68074A934203D13B681A6907
:102BEC007B681A637B6801225A6100BF1437BD46AB
:102BFC0080BC7047002C01400004004080B487B0BA
:102C0C0000AFF860B9607A60FB681B6A7B61FB6897
:102C1C001B6A23F00102FB681A62FB689B693B612B
:102C2C003B6923F0F0033B617B681B013A6913435A
:102C3C003B617B6923F00A037B617A69BB681343B0
:102C4C007B61FB683A699A61FB687A691A6200BF1A
:102C5C001C37BD4680BC704780B487B000AFF860AD
:102C6C00B9607A60FB681B6A23F01002FB681A6279
:102C7C00FB689B697B61FB681B6A3B617B6923F486
:102C8C0070437B617B681B037A6913437B613B69EF
:102C9C0023F0A0033B61BB681B013A6913433B6102
:102CAC00FB687A699A61FB683A691A6200BF1C3743
:102CBC00BD4680BC704780B485B000AF7860396089
:102CCC007B689B68FB60FB6823F07003FB603A68D1
:102CDC00FB68134343F00703FB607B68FA689A6058
:102CEC0000BF1437BD4680BC704780B487B000AFBE
:102CFC00F860B9607A603B60FB689B687B617B69BC
:102D0C0023F47F437B613B681A027B681A43BB68E0
:102D1C0013437A6913437B61FB687A699A6000BF3D
:102D2C001C37BD4680BC704780B485B000AF78605E
:102D3C0039607B6893F83C30012B01D1022341E0D0
:102D4C007B68012283F83C207B68022283F83D20BB
:102D5C007B681B685B68FB607B681B689B68BB605F
:102D6C00FB6823F07003FB603B681B68FA68134335
:102D7C00FB607B681B68FA685A607B681B68144AA6
:102D8C00934209D07B681B68B3F1804F04D07B68F9
:102D9C001B68104A93420CD1BB6823F08003BB60C4
:102DAC003B685B68BA681343BB607B681B68BA6896
:102DBC009A607B68012283F83D207B68002283F8AF
:102DCC003C20002318461437BD4680BC704700BF1A
:102DDC00002C01400004004080B483B000AF786048
:102DEC0000BF0C37BD4680BC704780B483B000AFC9
:102DFC00786000BF0C37BD4680BC704770B50026AC
:102E0C000C4D0D4C641BA410A64209D100F022F805
:102E1C0000260A4D0A4C641BA410A64205D170BDB5
:102E2C0055F8043B98470136EEE755F8043B9847B4
:102E3C000136F2E7C02E0008C02E0008C02E000894
:102E4C00C42E000803460244934200D1704703F895
:102E5C00011BF9E7F8B500BFF8BC08BC9E467047EB
:0C2E6C00F8B500BFF8BC08BC9E467047DB
:102E78003F000000060000005B0000004F0000005B
:102E8800660000006D0000007D00000007000000E3
:102E98007F0000006F000000020304050607080910
:102EA8000A0B0C0D0E0F10100000000000000000AF
:082EB8000102030406070809EA
:042EC00031010008D4
:042EC4000D010008F4
:102EC80001000000010000000100000001000000F6
:102ED80001000000010000000100000001000000E6
:102EE80001000000010000000100000001000000D6
:102EF800C800000032000000C80000000500000003
:102F080002000000030000000100000002000000B1
:102F180003000000040000000024F400100000007A
:042F280001000000A4
:04000005080017BD1B
:00000001FF
